{
    "txid": "225874ca4d1116a5359f7556e5a09e1d399252cd6a2afc0c3d3dc7374582a5aa",
    "hash": "225874ca4d1116a5359f7556e5a09e1d399252cd6a2afc0c3d3dc7374582a5aa",
    "version": 2,
    "size": 85,
    "vsize": 85,
    "locktime": 0,
    "vin": [
        {
            "txid": "5897de6bd6027a475eadd57019d4e6872c396d0716c4875a5f1a6fcfdf385c1f",
            "vout": 0,
            "scriptSig": {
                "asm": "",
                "hex": ""
            },
            "sequence": 4294967293
        }
    ],
    "vout": [
        {
            "value": 0.18000000,
            "n": 0,
            "scriptPubKey": {
                "asm": "OP_DUP OP_HASH160 4c6fe416827bdb3421069a4900cec7fe1517db39 OP_EQUALVERIFY OP_CHECKSIG",
                "hex": "76a9144c6fe416827bdb3421069a4900cec7fe1517db3988ac",
                "reqSigs": 1,
                "type": "pubkeyhash",
                "addresses": [
                    "SUGARjyPtxYCkHbNAvEKAbtVoFWhWjrLma"
                ]
            }
        }
    ],
    "hex": "02000000011f5c38dfcf6f1a5f5a87c416076d392c87e6d41970d5ad5e477a02d66bde97580000000000fdffffff0180a81201000000001976a9144c6fe416827bdb3421069a4900cec7fe1517db3988ac00000000"
}
