{
    "txid": "bd2ef2a8a416e7ab80ac1f105975939bf4900a7d5eef85bb7ee0ad29133acf03",
    "hash": "bd2ef2a8a416e7ab80ac1f105975939bf4900a7d5eef85bb7ee0ad29133acf03",
    "version": 2,
    "size": 201,
    "vsize": 201,
    "locktime": 0,
    "vin": [
        {
            "txid": "5897de6bd6027a475eadd57019d4e6872c396d0716c4875a5f1a6fcfdf385c1f",
            "vout": 0,
            "scriptSig": {
                "asm": "",
                "hex": ""
            },
            "sequence": 4294967295
        },
        {
            "txid": "bf829c6bcf84579331337659d31f89dfd138f7f7785802d5501c92333145ca7c",
            "vout": 18,
            "scriptSig": {
                "asm": "",
                "hex": ""
            },
            "sequence": 4294967295
        },
        {
            "txid": "22a6f904655d53ae2ff70e701a0bbd90aa3975c0f40bfc6cc996a9049e31cdfc",
            "vout": 1,
            "scriptSig": {
                "asm": "",
                "hex": ""
            },
            "sequence": 4294967295
        }
    ],
    "vout": [
        {
            "value": 0.18000000,
            "n": 0,
            "scriptPubKey": {
                "asm": "OP_DUP OP_HASH160 4c6fe416827bdb3421069a4900cec7fe1517db39 OP_EQUALVERIFY OP_CHECKSIG",
                "hex": "76a9144c6fe416827bdb3421069a4900cec7fe1517db3988ac",
                "reqSigs": 1,
                "type": "pubkeyhash",
                "addresses": [
                    "SUGARjyPtxYCkHbNAvEKAbtVoFWhWjrLma"
                ]
            }
        },
        {
            "value": 4.00000000,
            "n": 1,
            "scriptPubKey": {
                "asm": "OP_DUP OP_HASH160 4c6fe165803f808d8b38f7b6a488a6df1da5679f OP_EQUALVERIFY OP_CHECKSIG",
                "hex": "76a9144c6fe165803f808d8b38f7b6a488a6df1da5679f88ac",
                "reqSigs": 1,
                "type": "pubkeyhash",
                "addresses": [
                    "SUGAR1c3CvDCUtQ42h3u5kR3vnpVcSRaV5"
                ]
            }
        }
    ],
    "hex": "02000000031f5c38dfcf6f1a5f5a87c416076d392c87e6d41970d5ad5e477a02d66bde97580000000000ffffffff7cca453133921c50d5025878f7f738d1df891fd359763331935784cf6b9c82bf1200000000fffffffffccd319e04a996c96cfc0bf4c07539aa90bd0b1a700ef72fae535d6504f9a6220100000000ffffffff0280a81201000000001976a9144c6fe416827bdb3421069a4900cec7fe1517db3988ac0084d717000000001976a9144c6fe165803f808d8b38f7b6a488a6df1da5679f88ac00000000"
}
